{
  "_format": "hh-sol-artifact-1",
  "contractName": "Voting",
  "sourceName": "contracts/Voting.sol",
  "abi": [
    {
      "inputs": [],
      "stateMutability": "nonpayable",
      "type": "constructor"
    },
    {
      "anonymous": false,
      "inputs": [
        {
          "indexed": true,
          "internalType": "address",
          "name": "voter",
          "type": "address"
        },
        {
          "indexed": false,
          "internalType": "uint256",
          "name": "candidateId",
          "type": "uint256"
        }
      ],
      "name": "VoteCast",
      "type": "event"
    },
    {
      "inputs": [
        {
          "internalType": "string",
          "name": "_name",
          "type": "string"
        }
      ],
      "name": "addCandidate",
      "outputs": [],
      "stateMutability": "nonpayable",
      "type": "function"
    },
    {
      "inputs": [],
      "name": "admin",
      "outputs": [
        {
          "internalType": "address",
          "name": "",
          "type": "address"
        }
      ],
      "stateMutability": "view",
      "type": "function"
    },
    {
      "inputs": [],
      "name": "candidateCount",
      "outputs": [
        {
          "internalType": "uint256",
          "name": "",
          "type": "uint256"
        }
      ],
      "stateMutability": "view",
      "type": "function"
    },
    {
      "inputs": [
        {
          "internalType": "uint256",
          "name": "",
          "type": "uint256"
        }
      ],
      "name": "candidates",
      "outputs": [
        {
          "internalType": "string",
          "name": "name",
          "type": "string"
        },
        {
          "internalType": "uint256",
          "name": "votes",
          "type": "uint256"
        }
      ],
      "stateMutability": "view",
      "type": "function"
    },
    {
      "inputs": [
        {
          "internalType": "uint256",
          "name": "_candidateId",
          "type": "uint256"
        }
      ],
      "name": "getResults",
      "outputs": [
        {
          "internalType": "string",
          "name": "",
          "type": "string"
        },
        {
          "internalType": "uint256",
          "name": "",
          "type": "uint256"
        }
      ],
      "stateMutability": "view",
      "type": "function"
    },
    {
      "inputs": [
        {
          "internalType": "address",
          "name": "",
          "type": "address"
        }
      ],
      "name": "hasVoted",
      "outputs": [
        {
          "internalType": "bool",
          "name": "",
          "type": "bool"
        }
      ],
      "stateMutability": "view",
      "type": "function"
    },
    {
      "inputs": [
        {
          "internalType": "uint256",
          "name": "_candidateId",
          "type": "uint256"
        }
      ],
      "name": "vote",
      "outputs": [],
      "stateMutability": "nonpayable",
      "type": "function"
    }
  ],
  "bytecode": "0x6080604052348015600f57600080fd5b5033600360006101000a81548173ffffffffffffffffffffffffffffffffffffffff021916908373ffffffffffffffffffffffffffffffffffffffff160217905550610e89806100606000396000f3fe608060405234801561001057600080fd5b506004361061007d5760003560e01c8063462e91ec1161005b578063462e91ec146100ff57806381a60c0d1461011b578063a9a981a31461014c578063f851a4401461016a5761007d565b80630121b93f1461008257806309eef43e1461009e5780633477ee2e146100ce575b600080fd5b61009c6004803603810190610097919061063a565b610188565b005b6100b860048036038101906100b391906106c5565b61032c565b6040516100c5919061070d565b60405180910390f35b6100e860048036038101906100e3919061063a565b61034c565b6040516100f69291906107c7565b60405180910390f35b6101196004803603810190610114919061092c565b6103f8565b005b6101356004803603810190610130919061063a565b6104f0565b6040516101439291906107c7565b60405180910390f35b6101546105c4565b6040516101619190610975565b60405180910390f35b6101726105ca565b60405161017f919061099f565b60405180910390f35b600160003373ffffffffffffffffffffffffffffffffffffffff1673ffffffffffffffffffffffffffffffffffffffff16815260200190815260200160002060009054906101000a900460ff1615610215576040517f08c379a000000000000000000000000000000000000000000000000000000000815260040161020c90610a06565b60405180910390fd5b6002548110610259576040517f08c379a000000000000000000000000000000000000000000000000000000000815260040161025090610a72565b60405180910390fd5b600080828152602001908152602001600020600101600081548092919061027f90610ac1565b919050555060018060003373ffffffffffffffffffffffffffffffffffffffff1673ffffffffffffffffffffffffffffffffffffffff16815260200190815260200160002060006101000a81548160ff0219169083151502179055503373ffffffffffffffffffffffffffffffffffffffff167fa36cc2bebb74db33e9f88110a07ef56e1b31b24b4c4f51b54b1664266e29f45b826040516103219190610975565b60405180910390a250565b60016020528060005260406000206000915054906101000a900460ff1681565b600060205280600052604060002060009150905080600001805461036f90610b38565b80601f016020809104026020016040519081016040528092919081815260200182805461039b90610b38565b80156103e85780601f106103bd576101008083540402835291602001916103e8565b820191906000526020600020905b8154815290600101906020018083116103cb57829003601f168201915b5050505050908060010154905082565b600360009054906101000a900473ffffffffffffffffffffffffffffffffffffffff1673ffffffffffffffffffffffffffffffffffffffff163373ffffffffffffffffffffffffffffffffffffffff1614610488576040517f08c379a000000000000000000000000000000000000000000000000000000000815260040161047f90610bb5565b60405180910390fd5b60405180604001604052808281526020016000815250600080600254815260200190815260200160002060008201518160000190816104c79190610d81565b5060208201518160010155905050600260008154809291906104e890610ac1565b919050555050565b606060008060008085815260200190815260200160002060405180604001604052908160008201805461052290610b38565b80601f016020809104026020016040519081016040528092919081815260200182805461054e90610b38565b801561059b5780601f106105705761010080835404028352916020019161059b565b820191906000526020600020905b81548152906001019060200180831161057e57829003601f168201915b505050505081526020016001820154815250509050806000015181602001519250925050915091565b60025481565b600360009054906101000a900473ffffffffffffffffffffffffffffffffffffffff1681565b6000604051905090565b600080fd5b600080fd5b6000819050919050565b61061781610604565b811461062257600080fd5b50565b6000813590506106348161060e565b92915050565b6000602082840312156106505761064f6105fa565b5b600061065e84828501610625565b91505092915050565b600073ffffffffffffffffffffffffffffffffffffffff82169050919050565b600061069282610667565b9050919050565b6106a281610687565b81146106ad57600080fd5b50565b6000813590506106bf81610699565b92915050565b6000602082840312156106db576106da6105fa565b5b60006106e9848285016106b0565b91505092915050565b60008115159050919050565b610707816106f2565b82525050565b600060208201905061072260008301846106fe565b92915050565b600081519050919050565b600082825260208201905092915050565b60005b83811015610762578082015181840152602081019050610747565b60008484015250505050565b6000601f19601f8301169050919050565b600061078a82610728565b6107948185610733565b93506107a4818560208601610744565b6107ad8161076e565b840191505092915050565b6107c181610604565b82525050565b600060408201905081810360008301526107e1818561077f565b90506107f060208301846107b8565b9392505050565b600080fd5b600080fd5b7f4e487b7100000000000000000000000000000000000000000000000000000000600052604160045260246000fd5b6108398261076e565b810181811067ffffffffffffffff8211171561085857610857610801565b5b80604052505050565b600061086b6105f0565b90506108778282610830565b919050565b600067ffffffffffffffff82111561089757610896610801565b5b6108a08261076e565b9050602081019050919050565b82818337600083830152505050565b60006108cf6108ca8461087c565b610861565b9050828152602081018484840111156108eb576108ea6107fc565b5b6108f68482856108ad565b509392505050565b600082601f830112610913576109126107f7565b5b81356109238482602086016108bc565b91505092915050565b600060208284031215610942576109416105fa565b5b600082013567ffffffffffffffff8111156109605761095f6105ff565b5b61096c848285016108fe565b91505092915050565b600060208201905061098a60008301846107b8565b92915050565b61099981610687565b82525050565b60006020820190506109b46000830184610990565b92915050565b7f596f75206861766520616c726561647920766f7465642e000000000000000000600082015250565b60006109f0601783610733565b91506109fb826109ba565b602082019050919050565b60006020820190508181036000830152610a1f816109e3565b9050919050565b7f496e76616c69642063616e6469646174652e0000000000000000000000000000600082015250565b6000610a5c601283610733565b9150610a6782610a26565b602082019050919050565b60006020820190508181036000830152610a8b81610a4f565b9050919050565b7f4e487b7100000000000000000000000000000000000000000000000000000000600052601160045260246000fd5b6000610acc82610604565b91507fffffffffffffffffffffffffffffffffffffffffffffffffffffffffffffffff8203610afe57610afd610a92565b5b600182019050919050565b7f4e487b7100000000000000000000000000000000000000000000000000000000600052602260045260246000fd5b60006002820490506001821680610b5057607f821691505b602082108103610b6357610b62610b09565b5b50919050565b7f4f6e6c792061646d696e2063616e206164642063616e646964617465732e0000600082015250565b6000610b9f601e83610733565b9150610baa82610b69565b602082019050919050565b60006020820190508181036000830152610bce81610b92565b9050919050565b60008190508160005260206000209050919050565b60006020601f8301049050919050565b600082821b905092915050565b600060088302610c377fffffffffffffffffffffffffffffffffffffffffffffffffffffffffffffffff82610bfa565b610c418683610bfa565b95508019841693508086168417925050509392505050565b6000819050919050565b6000610c7e610c79610c7484610604565b610c59565b610604565b9050919050565b6000819050919050565b610c9883610c63565b610cac610ca482610c85565b848454610c07565b825550505050565b600090565b610cc1610cb4565b610ccc818484610c8f565b505050565b5b81811015610cf057610ce5600082610cb9565b600181019050610cd2565b5050565b601f821115610d3557610d0681610bd5565b610d0f84610bea565b81016020851015610d1e578190505b610d32610d2a85610bea565b830182610cd1565b50505b505050565b600082821c905092915050565b6000610d5860001984600802610d3a565b1980831691505092915050565b6000610d718383610d47565b9150826002028217905092915050565b610d8a82610728565b67ffffffffffffffff811115610da357610da2610801565b5b610dad8254610b38565b610db8828285610cf4565b600060209050601f831160018114610deb5760008415610dd9578287015190505b610de38582610d65565b865550610e4b565b601f198416610df986610bd5565b60005b82811015610e2157848901518255600182019150602085019450602081019050610dfc565b86831015610e3e5784890151610e3a601f891682610d47565b8355505b6001600288020188555050505b50505050505056fea264697066735822122012c348f0ddfa066b89b6ba5a25955eaf3f971278dfafce7a24ad74413594dfb364736f6c634300081c0033",
  "linkReferences": {},
  "deployedLinkReferences": {}
}